:020000040000FA
:1000000010F2FF1F95010000D90A0000BD15000085
:10001000BD150000BD150000BD150000BD15000098
:10002000BD150000BD150000BD150000BD15000088
:10003000BD150000BD150000BD150000BD15000078
:10004000BD150000BD150000BD150000BD15000068
:10005000BD150000BD150000BD150000BD15000058
:10006000BD150000BD150000BD150000BD15000048
:10007000BD150000BD150000BD150000BD15000038
:10008000BD150000BD150000BD150000BD15000028
:100090008D0B0000BD150000BD150000BD15000052
:1000A000BD150000BD150000BD150000BD15000008
:1000B000BD150000BD150000BD150000BD150000F8
:1000C00010F2FF1F950100009D01000000000000DC
:1000D0000000000000000000000000000000000020
:1000E000000000000000000000000000A701000068
:1000F0000000000000000000AB010000AD010000A6
:10010000AF010000AF010000AF010000AF0100002F
:10011000AF010000AF010000AF010000AF0100001F
:10012000AF010000AF010000AF010000AF0100000F
:10013000AF010000AF010000AF010000AF010000FF
:10014000AF010000AF010000AF010000AF010000EF
:10015000AF010000AF010000AF010000AF010000DF
:10016000AF010000AF010000AF010000AF010000CF
:10017000AF010000AF010000AF010000AF010000BF
:100180000348854600F070F800480047D11500008C
:1001900010F2FF1F0648804706480047FEE7FEE7CB
:1001A000FEE7FEE7FEE7FEE7FEE7FEE7FEE7FEE727
:1001B0004D0F00008101000030B50B4601460020C4
:1001C0002022012409E00D46D5409D4205D31D465D
:1001D0009540491B2546954040191546521E002D55
:1001E000F1DC30BDD2B201E00270401C491EFBD2EE
:1001F00070470022F6E710B513460A460446194632
:10020000FFF7F0FF204610BDF0B51FB406460020F2
:1002100082B005464024019100901BE001992246DE
:100220000F46304600F042F8049A059B801A994127
:1002300010D310461946224600F028F8361A8F418E
:100240000197224601200021009F00F01FF8381876
:100250004D4100902046641E0028DFDC019B009881
:100260002946324607B0F0BD064C0125064E05E092
:10027000E36807CC2B430C3C98471034B442F7D3C7
:10028000FFF782FF141700003417000010B5202A72
:1002900004DB0146203A9140002010BD914020230C
:1002A0009C1A0346E3401943904010BD10B5202A24
:1002B00004DB0846203AD040002110BD0B46D34055
:1002C000D0402024A21A91400843194610BD0000D6
:1002D00000B503461846083000F00AFC586800F0E4
:1002E0002FFA1748007804218843154908700846FA
:1002F0000078C02188438030114908700846407852
:10030000102188430E49487000BF0D4800790C2128
:10031000084080080228F8D100BF09480079102160
:1003200008400028F9D106484078E0218843044974
:10033000487008460079802108430149087100BDD2
:100340000040064000B503461846083000F0D0FBD8
:10035000586800F0F5F910480078042188430E49E8
:10036000087000BF0C480079102108400028F9D11E
:1003700000BF09480079402108400028F9D006480C
:100380004078E0218843044948700846007980217C
:1003900008430149087100BD0040064000B503460E
:1003A0001846083000F0A4FB586800F0C9F910485E
:1003B0000078042188430E49087000BF0C4800797A
:1003C000102108400028F9D100BF094800794021D8
:1003D00008400028F9D006484078E02188430449C5
:1003E000487008460079802108430149087100BD22
:1003F0000040064010B50A2000F0D4F810BD704748
:10040000FFFFFFFFFFFFFFFFFFFFFFFFFFFFFEFEFE
:1004100070B505460C4616465B4885420BD05A48D7
:100420004030854207D058488030854203D074213F
:1004300056A001F0ABF8002E01D0032E06D168695A
:1004400020436861A8692043A86109E0012E01D01A
:10045000022E05D16869A0436861A869A043A8611C
:10046000494840422818002804D0402810D080284D
:100470002AD11BE0022E05D1494880682043484913
:10048000886004E046488068A043454988601CE0D5
:10049000022E05D14248C06820434149C86004E0AB
:1004A0003F48C068A0433E49C8600EE0022E05D117
:1004B0003B48006920433A49086104E03848006934
:1004C000A0433749086100E000BF00BF2E488542C5
:1004D0002BD1012000032040002805D0304840697E
:1004E000012108432E494861012040032040002893
:1004F00005D02B4840690221084329494861012061
:1005000000062040002805D0254840690421084302
:1005100023494861012040062040002805D020489A
:100520004069082108431E49486117484030854208
:1005300029D1E007C00F002805D0194840691021D3
:1005400008431749486102202040002805D014487C
:1005500040692021084312494861012000062040DB
:10056000002805D00E484069402108430C494861E5
:10057000012040062040002805D00948406980211C
:1005800008430749486170BD00F00F402E2E5C649F
:100590007269766572735C6770696F2E6300000024
:1005A0000090044010B50446472C03DD104911A00B
:1005B00000F0ECFF202C04DA0120A04012498860F2
:1005C00014E0402C08DA20462038C4B20120A040B4
:1005D0000D494031886009E0482C07DA2046403850
:1005E000C4B20120A04008498031886010BD0000DD
:1005F000830200002E2E5C647269766572735C67FC
:1006000070696F2E6300000000F00F4010B50446C3
:10061000472C03DD104911A000F0B8FF202C04DAAC
:100620000120A0401249486014E0402C08DA20461E
:100630002038C4B20120A0400D494031486009E093
:10064000482C07DA20464038C4B20120A0400849AF
:100650008031486010BD00005B0200002E2E5C64FB
:100660007269766572735C6770696F2E6300000053
:1006700000F00F4010B50446084884420CD00748EB
:100680004030844208D005488030844204D0FF21A5
:10069000173103A000F07AFF206910BD00F00F4071
:1006A0002E2E5C647269766572735C6770696F2E5A
:1006B0006300000010B50022012189020348FFF702
:1006C000A7FE0A20FFF76EFF10BD000000F00F40EC
:1006D00010B50A20FFF79AFF10BD000010B50446C0
:1006E000207802280DD1207A102188431030207202
:1006F000207A20218843203020722046FFF722FEF6
:100700001BE02078032807D1207A1021884320722B
:100710002046FFF743FE10E02078052807D1207A15
:100720001021884320722046FFF7D2FD05E00348E0
:100730004078E02188430149487010BD00400640E0
:10074000214A811A904215D00ADC202832D07D211E
:100750004901411A16D07D225201891A31D108E08F
:100760001A4A8918002915D07D225201891A28D1E8
:1007700018E000BF16490978382291431831144A0D
:1007800011701FE012490978382291431031104A44
:10079000117017E00E4909783822914320310C4A34
:1007A00011700FE00A490978382291432031084A34
:1007B000117007E00649097838229143044A117004
:1007C00000E000BF00BF70471027000090E8FFFF67
:1007D00000400640094A90701146C978490849000E
:1007E000C205D20F1143054AD17000BF03490979F0
:1007F000402211400029F9D0704700000040064017
:10080000002001E0411CC8B20828FBDB7047000053
:1008100010B5002202210B48FFF7FAFD0022042147
:100820000848FFF7F5FD002208210648FFF7F0FD14
:100830000120FFF7EBFE0320FFF7E8FE0220FFF7A1
:10084000B1FE10BD00F00F40F8B506460C46174645
:10085000012500F015F9A02000F0C2F80546002D92
:1008600001D00120F8BDF104C80E00F0B9F805462A
:10087000002D01D00120F5E7F0B200F0B1F80546F7
:10088000002D01D00120EDE700F0FAF8A12000F0E2
:10089000A7F80546002D01D00120E3E714E000F0A1
:1008A0002BF820700320FFF77DFEFFF7A9FF022041
:1008B000FFF7ACFEFFF7A4FF0220FFF773FEFFF780
:1008C0009FFF641C781EC7B2012FE8DC00F014F80B
:1008D00020700320FFF79AFEFFF792FF0220FFF738
:1008E00095FEFFF78DFF0220FFF75CFEFFF788FF04
:1008F00000F0DCF80020B5E770B500240320FFF716
:1009000085FE002524E06006040E0220FFF77EFE2F
:10091000FFF776FF012208210F48FFF779FD0E4807
:10092000FFF7A8FE08210840002805D000220A4849
:10093000FFF76EFD01200443002208210648FFF75F
:1009400067FD0220FFF72EFEFFF75AFF681CC5B2B5
:10095000082DD8DB204670BD00F00F40F7B50646E5
:100960000F4601250120FFF71DFE00F089F8A020A9
:1009700000F036F80546002D01D00120FEBDF1043F
:10098000C80E00F02DF80546002D01D00120F5E736
:10099000F0B200F025F80546002D01D00120EDE76A
:1009A000002409E0385D00F01BF80546002D01D059
:1009B0000120E3E7601C84B202988442F2DB00F07D
:1009C00075F80120FFF722FE002401E0601C84B2CC
:1009D00002488442FADB0020D0E70000FF7F0000DD
:1009E00070B5044600251AE080202040002803D07E
:1009F0000320FFF70BFE02E00320FFF7D3FDFFF714
:100A0000FFFE0220FFF702FEFFF7FAFE6006040E6B
:100A10000220FFF7C7FDFFF7F3FE681CC5B2082DE3
:100A2000E2DB0320FFF7F2FDFFF7EAFE0220FFF70B
:100A3000EDFDFFF7E5FE012208211048FFF7E8FC75
:100A40000E48FFF717FE08210840002805D00022B5
:100A50000A48FFF7DDFC012070BD0022082107488D
:100A6000FFF7D6FC0220FFF79DFDFFF7C9FE03202C
:100A7000FFF798FDFFF7C4FE0020EDE700F00F4000
:100A800010B50320FFF7C2FDFFF7BAFE0220FFF703
:100A9000BDFDFFF7B5FE0320FFF784FDFFF7B0FEB5
:100AA0000220FFF77FFDFFF7ABFE10BD10B502205F
:100AB000FFF778FDFFF7A4FE0320FFF773FDFFF7B4
:100AC0009FFE0220FFF7A2FDFFF79AFE0320FFF72B
:100AD0009DFDFFF795FE10BD00BFFEE7C206D20EDA
:100AE00001219140014A11607047000000E100E0DF
:100AF000002102789207D20F002A01D0022211436E
:100B00000278D207D20F002A01D0042211430278C2
:100B10001207D20F002A01D0202211430278D206F8
:100B2000D20F002A01D01022114302785207D20FAF
:100B3000002A01D080221143074A117002789206E0
:100B4000D20F002A06D000BF034A1278D207D20F74
:100B5000002AF9D0704700000050064010B500226E
:100B60000121C9020348FFF753FC0B20FFF71AFDD0
:100B700010BD000000F00F400348006880210843CA
:100B8000014908607047000000D0034010B5FFF72E
:100B9000F3FF04480068002802D002490868804733
:100BA00010BD000004F0FF1F70B50E2100220323CA
:100BB0001B03002404690588ED04ED0F002D03D00C
:100BC00002260D46B543294605882D05ED0F002D5B
:100BD00003D004260D46B543294605886D05ED0F63
:100BE000002D03D008260D46B54329460578ED07AC
:100BF000ED0F002D02D00125ED04294305786D0786
:100C0000ED0F002D02D00125AD03294305782D07F6
:100C1000ED0F002D02D001252D0329430578AD07E6
:100C2000ED0F002D02D00125ED0329430588AD0508
:100C3000ED0F002D01D02025294345796D076D0B5F
:100C4000294305792D0629430588ED056D0F2D05EE
:100C500029430578AD06AD0F0326360235402943FA
:100C60008268C368024D6960EA606B616C6270BD46
:100C7000008004400EB500200090019002901348BF
:100C8000019013480290022100988843801C009034
:100C9000082100988843083000902021009888435C
:100CA000203000904021009888434030009010216F
:100CB0000098884300906946064800F00FF800222B
:100CC000012149050448FFF7A3FB0EBD40420F0078
:100CD000002D31010060074000F00F4070B5044660
:100CE0000D467548844206D07448844203D056218C
:100CF00073A000F04BFC7048844207D175484069EE
:100D00000121890408437349486106E0714840693C
:100D10000121C90408436F4948612878C007C00F02
:100D200000280FD000BF207880210843207000BF2A
:100D30006148844203D10A20FFF7D0FE02E00B2075
:100D4000FFF7CCFE28784007C00F00280FD000BF67
:100D5000207820210843207000BF5748844203D1E7
:100D60000A20FFF7BBFE02E00B20FFF7B7FE287852
:100D70000007C00F002806D000BF207810210843CC
:100D8000207000BF06E000BF20781021884320704B
:100D900000BF00BF2878C006C00F00280ED0204634
:100DA0000121002904D0027808231A43027003E0CD
:100DB000027808239A43027000BF00BF287880069B
:100DC000C00F00280ED020460121002904D002784F
:100DD00004231A43027003E0027804239A4302704A
:100DE00000BF00BF28780006C00F002806D000BF53
:100DF000207801210843207000BF00BF2888C0056B
:100E0000C00F002806D000BF6078802108436070C2
:100E100000BF00BF28888005C00F002802D02046F0
:100E200000F05AF828784006C00F002808D000BF0C
:100E3000207802210843207000BF204600F04CF8C3
:100E400028880005C00F002806D000BF6078012167
:100E50000843607000BF00BF28884005C00F00280D
:100E600006D000BF607808210843607000BF00BF53
:100E70002888C004C00F002806D000BF6078022177
:100E80000843607000BF00BF28780007C00F00282B
:100E900004D020466A68A96800F023F82878800703
:100EA000C00F002806D000BF2078402108432070E2
:100EB00000BF00BF70BD0000006007400070074029
:100EC0002E2E5C647269766572735C7370692E6332
:100ED000000000000080044041781022114341705E
:100EE0007047F7B582B006460F4638460499FFF7BB
:100EF00063F9019000200090002515E000240AE02D
:100F0000691C0198C840611C884202D801200090E9
:100F100003E0601CC4B2072CF2DD00BF009800287B
:100F200000D003E0681CC5B2082DE7DD00BF082C27
:100F300000DB0724082D00DD082520017021084072
:100F40002907090F0843B07005B0F0BD10B500F0D7
:100F500009F810BD00BF027980231A40002AFAD098
:100F6000C171704730B50B4C20786178A288E38856
:100F700080250446AC43204620242043064C054DE2
:100F80006C80064C6C802C466170A280E3802070DF
:100F900030BD000000200540C5200000D928000019
:100FA00072B60348034948800348488062B67047D8
:100FB000A602000000200540B480000070B580212A
:100FC0000022438884880578AD07ED0F002D03D0FB
:100FD00080260D46B54329460578ED07ED0F002D17
:100FE00001D04025294305782D07ED0F002D01D0B4
:100FF000012529430578ED06ED0F002D01D00425CC
:10100000294305786D07ED0F002D01D002252943F6
:1010100005786D06ED0F002D01D0202529430578B8
:10102000AD06ED0F002D01D080252A430588AD05C2
:10103000ED0F002D01D010252A430588ED05AD0FD9
:101040002A43084D084E7580084D758035466A70F4
:101050006B711D1235713546EC712512B57135462F
:10106000297070BDC520000000200540D92800006F
:1010700010B5FFF795FF10BD1CB504460020009089
:1010800001906846008804218843011D684601805C
:101090000088082188434118684601800088102193
:1010A00088434118684601800088402188430146F2
:1010B0006846018000880221884301466846018015
:1010C0000088FF21813188430146803168460180D4
:1010D000448000218180FFF771FF1CBD0FB410B563
:1010E00003A9044B044A029800F016F810BC08BC8F
:1010F00004B01847BF15000008F0FF1F02E008C841
:10110000121F08C1002AFAD17047002001E001C176
:10111000121F002AFBD17047FFB591B00F4605465C
:10112000002606E025280AD0149A139990476D1CD2
:10113000761C28780028F5D1304615B0F0BD002483
:1011400000940121F34A029400E004436D1C2B78C3
:101150000846203B98401042F7D128782A280ED024
:10116000022128780246303A092A15D8009A0A2323
:101170005A43303A80180C436D1C0090F1E701CFC0
:101180000090002805DA0120400304430098404203
:101190000090022004436D1C28782E2815D10420CD
:1011A000044368786D1C2A280AD101CF6D1C029077
:1011B0000BE002990A225143303940186D1C02900D
:1011C0002878014630390929F3D928786C2810D0BD
:1011D00006DC4C281AD068280ED06A2817D104E003
:1011E000742813D07A2812D110E00120400504435E
:1011F0000CE00121090501E0032109050C43697890
:10120000814203D10120000524186D1C6D1C287833
:1012100003906E281ED00CDC632831D004DC00283B
:101220008AD0582811D1B2E064287BD069280CD12B
:1012300078E073282DD004DC6F2870D0702804D19A
:10124000A7E075286CD078286BD0149A1399904732
:10125000761C62E06002400F022807D003280AD003
:10126000042838680AD006603F1D56E03868F11738
:1012700006604160F8E738680680F5E70670F3E736
:101280003878694608740020487404A80390012047
:1012900003E0386803900020C0433F1D61070FD56D
:1012A000002101E00199491C029A0191914213DA4F
:1012B0008142F7DB019A0399895C0029F2D10BE0A6
:1012C000002101E00199491C01918142FADB019A58
:1012D0000399895C0029F5D101990098139A401A65
:1012E00000902146149B00F03BF9019980194618A3
:1012F00007E0039803990078491C0391149A139905
:1013000090470198401E0190401CF2D12146149B49
:10131000139A009800F014F986196D1C09E741E052
:1013200033E034E00A200021049005916002410F6F
:10133000022905D001CFC2179446032905D007E042
:10134000FF1DFF08FF0003CF06E000B2C21794465E
:10135000042902D140B2C1178C460022614694454F
:1013600006DA0A460021404291418C462D2102E0D6
:10137000210504D52B216A461176012103E0E107FE
:1013800001D02021F7E7019154E00A200BE0102062
:1013900009E0102004900021042004430820059156
:1013A000029003E008200021059104906002410FA3
:1013B000022905D001CF00229446032906D006E079
:1013C000FF1DFF08FF0003CF8C4603E080B2042915
:1013D00000D1C0B20021019121072BD503997029BA
:1013E00006D0049A1021059B4A401A4305D00EE00E
:1013F00040216A461176012108E06146014306D08A
:1014000030216A4611760399517602210191049A9E
:101410000821059B4A401A430CD16146014301D182
:10142000610707D530216A461176012101910299A1
:10143000491E02910399582904D037A103910FA99D
:101440000F910DE039A1F9E76146059B049AFEF77B
:10145000DBFE039B8C469B5C0F9A521E0F9213700F
:1014600061460143F0D10F9807A9081A2030039074
:10147000600704D5012000048443029801E00120A4
:1014800002900399884201DD401A00E000204118D3
:101490000290019809180098401A0090E00306D4C1
:1014A0002146149B139A009800F05AF886190020E0
:1014B000049008E006A9085C149A139990470498D0
:1014C000401C761C049001998842F3DBE0030CD5A4
:1014D0002146149B139A009800F042F8861904E004
:1014E000149A302013999047761C0299481E029056
:1014F0000029F5DC08E00F980F990078491C0F913E
:10150000149A13999047761C0399481E039000295A
:10151000F1DCFBE60928010030313233343536374F
:10152000383961626364656600000000303132332F
:1015300034353637383941424344454600000000CF
:10154000F8B5044600251E461746880404D405E075
:1015500039462020B0476D1C641EF9D52846F8BDD9
:10156000FFB50446002581B01E46C80301D53027CB
:1015700000E02027880404D505E038460399B047E9
:101580006D1C641EF9D5284605B0F0BD05460E4613
:10159000324629460748FFF7A1FD09E0064C00E066
:1015A000641E002CFCD1044C00E0641E002CFCD115
:1015B000F4E70000F0160000A0860100704770B547
:1015C00004460D46E0B200F04DF8012070BD000069
:1015D0001CB500BF20A00068019000F04DF87D20F0
:1015E000C000FFF749FDFFF7B9FAFFF763F800BF46
:1015F0001A48C068402108431849C86000BFFFF777
:1016000039FBFFF705F926E0002402E0FFF730FD83
:10161000641C13488442F9D3FFF72AFD032201A971
:101620000120FFF79BF9032269460120FFF70CF91F
:10163000FFF74EF86846007804280AD168464078DB
:10164000052806D168468078062802D1FEF7D2FE2A
:1016500001E0FFF73DF8D7E70405060000800440ED
:10166000FFFF000010B5044621460248FFF772FC58
:1016700010BD000000B0064000B589B0142104A8D8
:10168000FEF7B7FD002001900290039015490880F5
:10169000154908805820FFF79DF81449079808431A
:1016A00007900121090608980843089004A8FFF74D
:1016B0007BFA6846007B41084900491C6846017373
:1016C000007B04218843011D684601737D20800151
:1016D000029002216846017101A8FEF7FFFF09B0E0
:1016E00000BD000000F0FF1F02F0FF1F003070007F
:1016F000417373657274696F6E206661696C6564AD
:1017000020696E202573206174206C696E65202528
:10171000640A00003417000000F0FF1F0C000000F6
:10172000FC100000401700000CF0FF1F0402000036
:101730000A1100000000000000000000000000008E
:040000050000019561
:00000001FF
