:020000040000FA
:1050000068040020955100004D640000817100008B
:1050100081710000817100008171000081710000C8
:1050200081710000817100008171000081710000B8
:1050300081710000817100008171000081710000A8
:105040008171000081710000817100008171000098
:105050008171000081710000817100008171000088
:105060008171000081710000817100008171000078
:105070008171000081710000817100008171000068
:105080008171000081710000817100008171000058
:1050900029650000817100008171000081710000AC
:1050A000E9600000817100008171000081710000E1
:1050B000817100008171000005630000B163000090
:1050C00068040020955100009D5100000000000080
:1050D00000000000000000000000000000000000D0
:1050E000000000000000000000000000A7510000C8
:1050F0000000000000000000AB510000AD510000B6
:10510000AF510000AF510000AF510000AF5100009F
:10511000AF510000AF510000AF510000AF5100008F
:10512000AF510000AF510000AF510000AF5100007F
:10513000AF510000AF510000AF510000AF5100006F
:10514000AF510000AF510000AF510000AF5100005F
:10515000AF510000AF510000AF510000AF5100004F
:10516000AF510000AF510000AF510000AF5100003F
:10517000AF510000AF510000AF510000AF5100002F
:105180000348854600F082F800480047957100000A
:10519000680400200648804706480047FEE7FEE70F
:1051A000FEE7FEE7FEE7FEE7FEE7FEE7FEE7FEE7D7
:1051B0000D6B00008151000030B50B460146002008
:1051C0002022012409E00D46D5409D4205D31D460D
:1051D0009540491B2546954040191546521E002D05
:1051E000F1DC30BD03460B439B0703D009E008C93F
:1051F000121F08C0042AFAD203E00B780370401C87
:10520000491C521EF9D27047D2B201E00270401C14
:10521000491EFBD270470022F6E710B513460A4636
:1052200004461946FFF7F0FF204610BDF0B51FB445
:105230000646002082B005464024019100901BE004
:10524000019922460F46304600F042F8049A059B29
:10525000801A994110D310461946224600F028F8CA
:10526000361A8F410197224601200021009F00F04D
:105270001FF838184D4100902046641E0028DFDCDE
:10528000019B00982946324607B0F0BD064C012527
:10529000064E05E0E36807CC2B430C3C98471034DE
:1052A000B442F7D3FFF770FFF074000010750000F0
:1052B00010B5202A04DB0146203A9140002010BDA1
:1052C000914020239C1A0346E3401943904010BDAF
:1052D00010B5202A04DB0846203AD040002110BD3A
:1052E0000B46D340D0402024A21A914008431946CF
:1052F00010BD000000B587B0182101A8FFF78BFF93
:105300000022012109063A4800F0D6FC182000F0DE
:105310009DFD384800F0D2FF37480069012109049B
:105320000843354908616846C08881088900891C9E
:105330006846C180C088FC218843011D6846C18041
:10534000C088FF210131884301466846C180C0887A
:105350000F21090388430B21090341186846C180C6
:10536000C088072149028843032189024118684601
:10537000C18022480390801E049021480590069029
:1053800000216846017280880821884341186846D8
:1053900081808088102188434118684681808088F8
:1053A0000121490388434118684681808088022191
:1053B0008843811C684681808088012109038843D5
:1053C000411868468180808801214902884341183C
:1053D0006846818080880121890388434118684696
:1053E000818001A9034800F079F807B000BD0000F2
:1053F00000F00F4000400240008004400410000014
:105400000100180030B595B004460D46012110A8E2
:105410008173002141730B48019002942246294672
:1054200003A8FFF7DFFE802110A80173064A01A937
:10543000064800F09BFA0449044800F009F815B04A
:1054400030BD00000208000024000020004002409F
:1054500070B505460C46FF200330005D102801D1D1
:10546000002070BD72B624E0FF200130005D000115
:105470000119284600F0E2F9002817D0FF2001307A
:10548000005D401CC1B2FF2001300155005D1028B5
:1054900003DB0021FF2001300155FF200330005DB8
:1054A000401CC1B2FF200330015502E062B601206A
:1054B000D7E7FF200130015D401C005D8142D3D160
:1054C000FF200330005D0028CED062B60120C8E77F
:1054D000417880221143417070470000F8B50446BE
:1054E0000D460026CE4840690121C9030843CC4936
:1054F00048612046FFF7ECFF2878C006C00F00285F
:1055000003D06078402108436070204600F08CF999
:1055100000BF204600F08DF90028FAD000BFE87ADD
:105520002074A97A6174697AA174297AE17400BF40
:1055300000BFE87C2075A97C6175697CA175297C18
:10554000E17500BF00BFE87B2076A97B6176697BAF
:10555000A176297BE17600BF00BFE87D2077A97D99
:105560006177697DA177297DE17700BF2046698851
:1055700000916A4611888901C02211406A4612884A
:105580001206920E114381706A461188090B128827
:105590001205520F120170231A401143C1706A465E
:1055A0001188C905C90F002904D0C1788022114390
:1055B000C17003E0C17880229143C17000BF287898
:1055C0000006C00F002806D000BF607810210843F5
:1055D000607000BF06E000BF6078102188436070F3
:1055E00000BF00BF28788006C00F002806D000BF8B
:1055F000607820210843607000BF06E000BF60783B
:1056000020218843607000BF00BF2878C007C00F0A
:10561000002806D000BF207820210843207000BF5A
:1056200006E000BF207820218843207000BF00BF23
:1056300028784006C00F002806D000BF60780421FB
:105640000843607000BF06E000BF60780421884313
:10565000607000BF00BF2888C00B002806D000BFC4
:10566000607808210843607000BF06E000BF6078E2
:1056700008218843607000BF00BF287901013022F3
:105680001140E17200BF00BF207840084000207048
:1056900000BF00BF204600F0CCF80028FAD12888CF
:1056A000C004C00F002806D000BF60790221084363
:1056B000607100BF06E000BF60790221884360711D
:1056C00000BF00BF28888004C00F002809D000BF99
:1056D000607901210843607100BF1E2000F0C2FE06
:1056E0000CE000BF607940084000607100BF1E20E0
:1056F000012181404B4A116000BF00BF288840054E
:10570000C00F002807D000BF6079302108436071C6
:1057100000BF012606E000BF607930218843607138
:1057200000BF00BF28888005C00F002807D000BF39
:10573000607940210843607100BF012606E000BF88
:10574000607940218843607100BF00BF28788007DE
:10575000C00F002806D000BF207808210843207021
:1057600000BF06E000BF207808218843207000BFFA
:1057700000BF28884004C00F002807D000BFE07990
:1057800007210843E07100BF012606E000BFE07971
:10579000C008C000E07100BF00BF28880005C00F2E
:1057A000002807D000BF60790C210843607100BF5A
:1057B000012606E000BF60790C218843607100BFBC
:1057C00000BF2888C005C00F002804D0204600F084
:1057D000CAF9012606E000BF607980218843607124
:1057E00000BF00BF28784007C00F002803D0204624
:1057F00000F0B4F906E000BF20780421884320704F
:1058000000BF00BF002E02D01F2000F02BFE287822
:105810000007C00F002802D02046FFF759FEF8BD50
:105820000080044080E100E0017801221143017012
:10583000704701464878C007C00F704770B50446EE
:105840000E4600BF0E4880794007400F0546002DE8
:1058500000D170BD72B600BF6807400FA07200BFD4
:105860000E22314620463030FFF7BCFC00BFA17A43
:105870004807400F00BFA07100BF62B60120E8E7F3
:10588000004002403CB5024600BF1079C007C00F7F
:10589000002869D000BF2120805C019000BF232038
:1058A000845C0094684600790007C00FC87368469E
:1058B0000078C007C00F887300BF2024A45C640573
:1058C000FF256D052C4020460C68AC4304430C605A
:1058D0000724A4040868A0436C4624796409A4043E
:1058E0000725AD042C4020430860EC100868A04355
:1058F0006C462479E403ED102C402043086000BF7F
:105900002224A45CE401FF25ED012C4020460C6814
:10591000AC4304430C600868C009C0016C4624789D
:105920006408204308602C20805C0007000F087387
:10593000002306E010462430C45C081DC454581CE3
:10594000C3B2087B9842F5DC00BF3E20805C08743F
:1059500000BF3F20805C487400BF107901242043C1
:10596000107100BF01203CBD0020FCE7FEB50746DA
:105970000D4614460026FF200330005D002806D0A7
:10598000FF200330005DC0006968884201D200201A
:10599000FEBD72B6FF200230005D102803D1002149
:1059A000FF20023001554A20405D00283CD0684667
:1059B0000079E02188432968C902490F4901E022A2
:1059C0001140014301916846007910218843411834
:1059D0000191684600790821884341180191684681
:1059E0000079C008C00029688903490F014301916B
:1059F00068460078FE21884329684900FE2211404C
:105A0000084300904920405D002807D06946087887
:105A100040084000401C00906E6824E06946087809
:105A20004008400000901EE068460079E02188436D
:105A30002968C902490F4901E0221140014301913F
:105A40006846007910218843019068460079082152
:105A50008843019068460079C008C000296889031E
:105A6000490F0843019073E02868C000010EFF2031
:105A70000230005D0001215468460179FF200230A8
:105A8000005D0001001941704A20405D002810D0DF
:105A900028884004010EFF200230005D000100193B
:105AA000817068460178FF200230005D0001001916
:105AB000C170304608306968814214D32A460832E2
:105AC0009119FF220232125D12011219101D0822D3
:105AD000FFF788FB0821FF200230005D000100195C
:105AE0000173083616E06B689A1B2B460833991928
:105AF000FF2302331B5D1B011B19181DFFF772FBEF
:105B00002879801BC1B2FF200230005D000100191E
:105B100001736E684820415DFF200230005D000186
:105B200000194173FF200330005D401EC1B2FF2009
:105B300003300155401E005D401CC1B2FF20023001
:105B40000155005D102803D10021FF2002300155CE
:105B50006868B04288D862B6012019E7017804224B
:105B600011430170704741798022114341717047A0
:105B700030B502460B460020002100BF05E05C5C0A
:105B80004440034D285D4C1CE1B29142F7DB30BD2F
:105B9000F073000000B503461846083000F076FCAC
:105BA000586800F025FA1748007804218843154901
:105BB000087008460078C021884380301149087079
:105BC00008464078102188430E49487000BF0D48B0
:105BD00000790C21084080080228F8D100BF09484C
:105BE0000079102108400028F9D106484078E021CA
:105BF00088430449487008460079802108430149D8
:105C0000087100BD0040064000B503461846083044
:105C100000F03CFC586800F0EBF9104800780421D3
:105C200088430E49087000BF0C48007910210840D5
:105C30000028F9D100BF0948007940210840002818
:105C4000F9D006484078E021884304494870084666
:105C50000079802108430149087100BD00400640D9
:105C600000B503461846083000F010FC586800F0F4
:105C7000BFF910480078042188430E49087000BF1E
:105C80000C480079102108400028F9D100BF0948CC
:105C90000079402108400028F9D006484078E021EA
:105CA0008843044948700846007980210843014927
:105CB000087100BD0040064070B505460C4616460A
:105CC0005B4885420BD05A484030854207D058483F
:105CD0008030854203D0742156A001F039FA002E9D
:105CE00001D0032E06D1686920436861A86920436A
:105CF000A86109E0012E01D0022E05D16869A043F8
:105D00006861A869A043A861494840422818002852
:105D100004D0402810D080282AD11BE0022E05D1C3
:105D20004948806820434849886004E046488068C4
:105D3000A043454988601CE0022E05D14248C06856
:105D400020434149C86004E03F48C068A0433E4941
:105D5000C8600EE0022E05D13B48006920433A4955
:105D6000086104E038480069A0433749086100E051
:105D700000BF00BF2E4885422BD1012000032040E8
:105D8000002805D030484069012108432E49486168
:105D9000012040032040002805D02B484069022103
:105DA000084329494861012000062040002805D009
:105DB00025484069042108432349486101204006E1
:105DC0002040002805D020484069082108431E498A
:105DD000486117484030854229D1E007C00F0028AC
:105DE00005D019484069102108431749486102202D
:105DF0002040002805D0144840692021084312495A
:105E00004861012000062040002805D00E48406966
:105E1000402108430C4948610120400620400028E9
:105E200005D009484069802108430749486170BD91
:105E300000F00F402E2E5C647269766572735C67A9
:105E400070696F2E630000000090044010B5044696
:105E5000472C03DD104911A001F07AF9202C04DA57
:105E60000120A0401249886014E0402C08DA204646
:105E70002038C4B20120A0400D494031886009E0BB
:105E8000482C07DA20464038C4B20120A040084917
:105E90008031886010BD0000830200002E2E5C64FB
:105EA0007269766572735C6770696F2E63000000BB
:105EB00000F00F4010B50446472C03DD104911A037
:105EC00001F046F9202C04DA0120A0401249486074
:105ED00014E0402C08DA20462038C4B20120A0404B
:105EE0000D494031486009E0482C07DA2046403827
:105EF000C4B20120A04008498031486010BD0000B4
:105F00005B0200002E2E5C647269766572735C67BA
:105F100070696F2E6300000000F00F4070B50446FA
:105F20000D46084884420BD006484030844207D0D2
:105F300004488030844203D0FD2103A001F008F919
:105F4000E56070BD00F00F402E2E5C6472697665CE
:105F500072735C6770696F2E6300000010B50022D9
:105F6000012189020348FFF7A7FE0A20FFF76EFF11
:105F700010BD000000F00F4010B501218902024859
:105F8000FFF7CCFF10BD000000F00F4010B5044635
:105F9000207802280DD1207A1021884310302072F9
:105FA000207A20218843203020722046FFF72CFEE3
:105FB0001BE02078032807D1207A10218843207223
:105FC0002046FFF74DFE10E02078052807D1207A03
:105FD0001021884320722046FFF7DCFD05E00348CE
:105FE0004078E02188430149487010BD00400640D8
:105FF000214A811A904215D00ADC202832D07D2116
:106000004901411A16D07D225201891A31D108E086
:106010001A4A8918002915D07D225201891A28D1DF
:1060200018E000BF16490978382291431831144A04
:1060300011701FE012490978382291431031104A3B
:10604000117017E00E4909783822914320310C4A2B
:1060500011700FE00A490978382291432031084A2B
:10606000117007E00649097838229143044A1170FB
:1060700000E000BF00BF70471027000090E8FFFF5E
:1060800000400640094A90701146C9784908490005
:10609000C205D20F1143054AD17000BF03490979E7
:1060A000402211400029F9D070470000004006400E
:1060B00010B5002202210B48FFF7FEFD002204214B
:1060C0000848FFF7F9FD002208210648FFF7F4FD14
:1060D0000120FFF7EFFE0320FFF7ECFE0220FFF7A1
:1060E000B5FE10BD00F00F4010B5074880680421D0
:1060F00008430549886005480068002802D0034924
:106100000868804710BD0000009007400400002090
:10611000F0B5C3B004460F4600204290FF22013282
:10612000544901A8FFF75EF85348844209D1534807
:106130004069012109060843504948610020419007
:106140000BE04F48844208D14C4840690121490680
:1061500008434A494861012041903878C007C00F80
:1061600042904298A060002558E0381D405D8007AD
:10617000C00F002851D020680121A94008432060A9
:1061800060680121A9408843391D495DC907C90FCD
:10619000A940084360604198C00101A94018A900C6
:1061A000465880203040002803D0A42135A000F0BC
:1061B000CFFF4198002818D11F20C0068069012117
:1061C000B14088431F21C906886108464069012102
:1061D000B14088431F21C90648612F4880680121CA
:1061E000B14008432C49886017E04198012814D138
:1061F0002A4880690121B1408843284988610846BE
:1062000040690121B1408843244948612248C0685F
:106210000121B14008432049C8606D1C202DA4D342
:1062200038788006C00F40014290A0684299084328
:10623000A0603878C006C00F00014290A068429963
:106240000843A0604298A06038788007C00F0028FB
:106250000DD0A06802210843A0600748844203D102
:10626000182000F0F5F802E0192000F0F1F843B032
:10627000F0BD0000F0720000009007400080044074
:1062800000A007402E2E5C647269766572735C6BA9
:1062900062692E630000000000900440400000F896
:1062A000044A904202D1044A116001E0024A51605E
:1062B00070470000009007400400002010B504461D
:1062C00010210A4881700021417001701020084996
:1062D000087000200749087007490870074800F057
:1062E0005BF8074800F05EF810BD000024010020B4
:1062F0001A00002018000020190000201D63000073
:10630000C963000010B504480068002802D00249A3
:106310000868804710BD00000C00002010B5194827
:106320000068401C1749086000BF17480079C00783
:10633000C00F002825D01548007800281AD014482E
:106340000078134A1278521C114B1A7014225043D1
:10635000104A81180C48FFF795FA0D48007810286C
:1063600002DB00200A49087008480078401E0749EF
:10637000087006E00448017901221143017100BF51
:1063800000BF10BD1C000020004002401A00002089
:106390001800002028010020014908607047000013
:1063A0000C00002001490860704700001000002028
:1063B00010B504480068002802D0024908688047E8
:1063C00010BD00001000002010B500BF1D4800796E
:1063D00002210840002806D01A4801790222114300
:1063E000017100BF00BF00BF16480079802108403E
:1063F000002806D01348017980221143017100BFA3
:1064000000BF00BF0F4800794021084000280BD092
:106410000C48017940221143017100BF00BF00798F
:1064200000BF0848807B00BF07490648FFF710F807
:10643000002806D10348C179C908C900C17100BF4D
:1064400000BF10BD004002402400002000BFFEE756
:10645000C206D20E01219140014A1160704700002E
:1064600000E100E0C206D20E01219140014A116014
:106470007047000000E100E0C206D20E0121914009
:10648000014A11607047000000E100E0002102783D
:106490009207D20F002A01D0022211430278D207BC
:1064A000D20F002A01D00422114302781207D20F22
:1064B000002A01D0202211430278D206D20F002AEE
:1064C00001D01022114302785207D20F002A01D0C6
:1064D00080221143074A117002789206D20F002AD7
:1064E00006D000BF034A1278D207D20F002AF9D093
:1064F000704700000050064010B500220121C9027B
:106500000348FFF7D9FB0B20FFF7A0FC10BD0000EC
:1065100000F00F40034800688021084301490860EB
:106520007047000000D0034010B5FFF7F3FF0448A8
:106530000068002802D002490868804710BD0000AA
:106540001400002070B50E21002203231B03002439
:1065500004690588ED04ED0F002D03D002260D46D9
:10656000B543294605882D05ED0F002D03D00426DF
:106570000D46B543294605886D05ED0F002D03D066
:1065800008260D46B54329460578ED07ED0F002D89
:1065900002D00125ED04294305786D07ED0F002D8C
:1065A00002D00125AD03294305782D07ED0F002DFD
:1065B00002D001252D0329430578AD07ED0F002DED
:1065C00002D00125ED0329430588AD05ED0F002D0F
:1065D00001D02025294345796D076D0B29430579A5
:1065E0002D0629430588ED056D0F2D0529430578F6
:1065F000AD06AD0F03263602354029438268C368D5
:10660000024D6960EA606B616C6270BD008004409D
:106610000EB500200090019002901348019013489D
:106620000290022100988843801C00900821009865
:106630008843083000902021009888432030009043
:1066400040210098884340300090102100988843F2
:1066500000906946064800F019F80022012149051A
:106660000448FFF729FB0EBD40420F00002D310109
:106670000060074000F00F4010B51520FFF7E6FB63
:1066800010BD10B51520FFF715FC10BD70B5044600
:106690000D467548844206D07448844203D0562182
:1066A00073A000F055FD7048844207D175484069D9
:1066B0000121890408437349486106E07148406933
:1066C0000121C90408436F4948612878C007C00FF9
:1066D00000280FD000BF207880210843207000BF21
:1066E0006148844203D10A20FFF7C6FE02E00B2076
:1066F000FFF7C2FE28784007C00F00280FD000BF68
:10670000207820210843207000BF5748844203D1DD
:106710000A20FFF7B1FE02E00B20FFF7ADFE28785C
:106720000007C00F002806D000BF207810210843C2
:10673000207000BF06E000BF207810218843207041
:1067400000BF00BF2878C006C00F00280ED020462A
:106750000121002904D0027808231A43027003E0C3
:10676000027808239A43027000BF00BF2878800691
:10677000C00F00280ED020460121002904D0027845
:1067800004231A43027003E0027804239A43027040
:1067900000BF00BF28780006C00F002806D000BF49
:1067A000207801210843207000BF00BF2888C00561
:1067B000C00F002806D000BF6078802108436070B9
:1067C00000BF00BF28888005C00F002802D02046E7
:1067D00000F05AF828784006C00F002808D000BF03
:1067E000207802210843207000BF204600F04CF8BA
:1067F00028880005C00F002806D000BF607801215E
:106800000843607000BF00BF28884005C00F002803
:1068100006D000BF607808210843607000BF00BF49
:106820002888C004C00F002806D000BF607802216D
:106830000843607000BF00BF28780007C00F002821
:1068400004D020466A68A96800F068F828788007B4
:10685000C00F002806D000BF2078402108432070D8
:1068600000BF00BF70BD000000600740007007401F
:106870002E2E5C647269766572735C7370692E6328
:106880000000000000800440417810221143417054
:1068900070470000FEB504460D46164600200190E4
:1068A00000900027FFF7EDFE601CC1B26846017141
:1068B0006806010E6846417101A90220FFF758F9E8
:1068C000014668468171032301AA6946124800F017
:1068D0005AF800200090FF22032101A8FEF794FC43
:1068E000032301AA69460C4800F04DF8FFF7C4FEE7
:1068F00069460220FFF73CF9074668468078B842AF
:1069000001D00120FEBD694608780002497808439D
:1069100030800020F6E7000000600740F7B582B045
:1069200006460F4638460499FEF746FC01900020C3
:106930000090002515E000240AE0691C0198C84079
:10694000611C884202D80120009003E0601CC4B2A0
:10695000072CF2DD00BF0098002800D003E0681C7F
:10696000C5B2082DE7DD00BF082C00DB0724082D89
:1069700000DD08252001702108402907090F084380
:10698000B07005B0F0BDF0B504460D460026002BF2
:1069900001D13046F0BD002114E000BF00BFE07817
:1069A000202738400028F9D0505C607100BF00BF3C
:1069B00000BFE078802738400028F9D000BF607918
:1069C0006854491C9942E8D33046E3E7F0B585B0F6
:1069D00005460E4614460020039004900190029054
:1069E000002700210091FFF74CFE684605737006F2
:1069F000010E6846417321128173C47303A90420F8
:106A0000FFF7B6F869460874052303AA01A90B48E5
:106A1000FFF7B9FFFFF730FE6A4631462846FFF719
:106A200039FF002802D0012005B0F0BD684600887B
:106A3000A04201D00120F7E70020F5E70060074001
:106A400010B58AB0242101A8FEF7E5FB002406E07A
:106A500002A8005D0221884302A90855641C202C6D
:106A6000F6D320210198884320300190102101980D
:106A700088431030019001984008400001900221A5
:106A800001988843801C019001A8C07D4008400007
:106A9000401C01A9C87501A8C07D02218843801C43
:106AA00001A9C8750448FFF733FB04490248FFF702
:106AB000F7FB0AB010BD000000900740C16A00005B
:106AC00010B500BF0E48C0680121C904884215D125
:106AD0000C4A0B21E020FFF779FF04223021E0204F
:106AE000FFF774FF084A0A21E020FFF76FFF00223A
:106AF0000B21E020FFF76AFFFFF73EFA10BD000010
:106B000000900740B5E300000440000010B500F01D
:106B100009F810BD00BF027980231A40002AFAD07C
:106B2000C171704730B50B4C20786178A288E3883A
:106B300080250446AC43204620242043064C054DC6
:106B40006C80064C6C802C466170A280E3802070C3
:106B500030BD000000200540C5200000D9280000FD
:106B600072B60348034948800348488062B67047BC
:106B7000A602000000200540B480000070B580210E
:106B80000022438884880578AD07ED0F002D03D0DF
:106B900080260D46B54329460578ED07ED0F002DFB
:106BA00001D04025294305782D07ED0F002D01D098
:106BB000012529430578ED06ED0F002D01D00425B0
:106BC000294305786D07ED0F002D01D002252943DB
:106BD00005786D06ED0F002D01D02025294305789D
:106BE000AD06ED0F002D01D080252A430588AD05A7
:106BF000ED0F002D01D010252A430588ED05AD0FBE
:106C00002A43084D084E7580084D758035466A70D8
:106C10006B711D1235713546EC712512B571354613
:106C2000297070BDC520000000200540D928000053
:106C300010B5FFF795FF10BD1CB50446002000906D
:106C400001906846008804218843011D6846018040
:106C50000088082188434118684601800088102177
:106C600088434118684601800088402188430146D6
:106C700068460180008802218843014668460180F9
:106C80000088FF21813188430146803168460180B8
:106C9000448000218180FFF771FF1CBD0FB410B547
:106CA00003A9044B044A029800F018F810BC08BC71
:106CB00004B01847837100002000002002E008C8DB
:106CC000121F08C1002AFAD170477047002001E066
:106CD00001C1121F002AFBD170470000FFB591B01F
:106CE0000F460546002606E025280AD0149A139977
:106CF00090476D1C761C28780028F5D1304615B0D9
:106D0000F0BD002400940121F34A029400E0044302
:106D10006D1C2B780846203B98401042F7D128780C
:106D20002A280ED0022128780246303A092A15D89E
:106D3000009A0A235A43303A80180C436D1C009085
:106D4000F1E701CF0090002805DA01204003044359
:106D5000009840420090022004436D1C28782E28A1
:106D600015D10420044368786D1C2A280AD101CF6C
:106D70006D1C02900BE002990A22514330394018F1
:106D80006D1C02902878014630390929F3D92878FA
:106D90006C2810D006DC4C281AD068280ED06A283F
:106DA00017D104E0742813D07A2812D110E0012002
:106DB000400504430CE00121090501E00321090518
:106DC0000C436978814203D10120000524186D1C11
:106DD0006D1C287803906E281ED00CDC632831D0FF
:106DE00004DC00288AD0582811D1B2E064287BD076
:106DF00069280CD178E073282DD004DC6F2870D07E
:106E0000702804D1A7E075286CD078286BD0149A2C
:106E100013999047761C62E06002400F022807D069
:106E200003280AD0042838680AD006603F1D56E0BF
:106E30003868F11706604160F8E738680680F5E7C2
:106E40000670F3E73878694608740020487404A88F
:106E50000390012003E0386803900020C0433F1DE9
:106E600061070FD5002101E00199491C029A0191A7
:106E7000914213DA8142F7DB019A0399895C002978
:106E8000F2D10BE0002101E00199491C01918142FE
:106E9000FADB019A0399895C0029F5D101990098E0
:106EA000139A401A00902146149B00F03BF9019977
:106EB0008019461807E0039803990078491C03914C
:106EC000149A139990470198401E0190401CF2D1EA
:106ED0002146149B139A009800F014F986196D1C32
:106EE00009E741E033E034E00A20002104900591F5
:106EF0006002410F022905D001CFC2179446032931
:106F000005D007E0FF1DFF08FF0003CF06E000B239
:106F1000C2179446042902D140B2C1178C46002200
:106F20006146944506DA0A460021404291418C466A
:106F30002D2102E0210504D52B216A46117601217D
:106F400003E0E10701D02021F7E7019154E00A2096
:106F50000BE0102009E010200490002104200443DD
:106F600008200591029003E008200021059104907B
:106F70006002410F022905D001CF00229446032967
:106F800006D006E0FF1DFF08FF0003CF8C4603E09C
:106F900080B2042900D1C0B20021019121072BD574
:106FA0000399702906D0049A1021059B4A401A4380
:106FB00005D00EE040216A461176012108E06146C5
:106FC000014306D030216A46117603995176022199
:106FD0000191049A0821059B4A401A430CD161464D
:106FE000014301D1610707D530216A46117601219D
:106FF00001910299491E02910399582904D037A1A1
:1070000003910FA90F910DE039A1F9E76146059BA6
:10701000049AFEF70BF9039B8C469B5C0F9A521E59
:107020000F92137061460143F0D10F9807A9081A17
:1070300020300390600704D50120000484430298A7
:1070400001E0012002900399884201DD401A00E02E
:10705000002041180290019809180098401A0090E9
:10706000E00306D42146149B139A009800F05AF8C6
:1070700086190020049008E006A9085C149A139968
:1070800090470498401C761C049001998842F3DBD9
:10709000E0030CD52146149B139A009800F042F8A7
:1070A000861904E0149A302013999047761C0299AF
:1070B000481E02900029F5DC08E00F980F9900782F
:1070C000491C0F91149A13999047761C0399481EF6
:1070D00003900029F1DCFBE609280100303132334E
:1070E0003435363738396162636465660000000004
:1070F00030313233343536373839414243444546EE
:1071000000000000F8B5044600251E461746880416
:1071100004D405E039462020B0476D1C641EF9D523
:107120002846F8BDFFB50446002581B01E46C803B9
:1071300001D5302700E02027880404D505E0384633
:107140000399B0476D1C641EF9D5284605B0F0BD03
:1071500005460E46324629460748FFF79FFD09E0DF
:10716000064C00E0641E002CFCD1044C00E0641EC0
:10717000002CFCD1F4E70000CC720000A0860100D6
:10718000704770B504460D46E0B200F059F8012092
:1071900070BD000086B0182220A16846FEF722F8D4
:1071A00000F058F87D20C000FFF746FDFFF7A4F976
:1071B000FEF7D4FE00BF1F48C068402108431D49A8
:1071C000C86000BFFFF724FAFFF73AFCFEF792F819
:1071D000194A0B21E020FFF7F9FB812292011721C8
:1071E000E020FFF7F3FB372212020C21E020FFF72B
:1071F000EDFB124A1A21E020FFF7E8FB00220B21E9
:10720000E020FFF7E3FBFEF753FF05E0FFF710FD7B
:1072100069460120FEF7F6F8F8E7000030010203A6
:107220000405060708090A0B0C0D0E0F10111213A6
:107230001415161700800440B5E30000321000005A
:1072400010B5044621460248FFF764FC10BD00005B
:1072500000B0064000B589B0142104A8FDF7DBFF9B
:10726000002001900290039015490880154908807C
:107270005820FEF707FF144907980843079001219B
:10728000090608980843089004A8FFF75BF96846C8
:10729000007B41084900491C68460173007B0421BA
:1072A0008843011D684601737D2080010290022100
:1072B0006846017101A8FEF769FE09B000BD000033
:1072C0000000002002000020003070004173736550
:1072D0007274696F6E206661696C656420696E20E6
:1072E0002573206174206C696E652025640A000096
:1072F0000000000001000000020000000300000088
:107300000400000005000000060000000700000067
:1073100008000000090000000A0000000B00000047
:107320000C0000000D0000000E0000000F00000027
:107330001000000011000000120000001300000007
:1073400014000000150000001600000017000000E7
:1073500018000000190000001A0000001B000000C7
:107360001C0000001D0000001E0000001F000000A7
:107370000000000001000000020000000300000007
:1073800004000000050000000600000007000000E7
:1073900008000000090000000A0000000B000000C7
:1073A0000C0000000D0000000E0000000F000000A7
:1073B0001000000011000000120000001300000087
:1073C0001400000015000000160000001700000067
:1073D00018000000190000001A0000001B00000047
:1073E0001C0000001D0000001E0000001F00000027
:1073F00000D57FAAFE2B815429FC5683D702A87D95
:1074000052872DF8AC79D3067BAE04D18550FA2F84
:10741000A471DB0E5A8F25F08D58F22773A60CD974
:10742000F623895C08DD77A2DF0AA07521F45E8B64
:107430009D48E23763B61CC9B461CB1E4A9F35E054
:10744000CF1AB06531E44E9BE633994C18CD67B244
:1074500039EC4693C712B86D10C56FBAEE3B914434
:107460006BBE14C19540EA3F42973DE8BC69C31624
:10747000EF3A904511C46EBBC613B96C38ED479214
:10748000BD68C21743963CE99441EB3E6ABF15C004
:107490004B9E34E1B560CA1F62B71DC89C49E336F4
:1074A00019CC66B3E732984D30E54F9ACE1BB164E4
:1074B00072A70DD88C59F3265B8E24F1A570DA0FD4
:1074C00020F55F8ADE0BA17409DC76A3F722885DC4
:1074D000D603A97C28FD5782FF2A805501D47EABB4
:1074E0008451FB2E7AAF05D0AD78D20753862CF9A4
:1074F000107500000000002024000000BC6C00009B
:10750000347500002400002044040000CC6C00000E
:10751000000000000000000000000000000000006B
:10752000000000000000000000000000000000005B
:047530000000000057
:040000050000518125
:00000001FF
