:020000040000FA
:1000000070F2FF1F95010000F1030000BD13000016
:10001000BD130000BD130000BD130000BD130000A0
:10002000BD130000BD130000BD130000BD13000090
:10003000BD130000BD130000BD130000BD13000080
:10004000BD130000BD130000BD130000BD13000070
:10005000BD130000BD130000BD130000BD13000060
:10006000BD130000BD130000BD130000BD13000050
:10007000BD130000BD130000BD130000BD13000040
:10008000BD130000BD130000BD130000BD13000030
:10009000A1080000BD130000BD130000BD13000047
:1000A000BD130000BD130000BD130000BD13000010
:1000B000BD130000BD130000BD130000BD13000000
:1000C00070F2FF1F950100009D010000000000007C
:1000D0000000000000000000000000000000000020
:1000E000000000000000000000000000A701000068
:1000F0000000000000000000AB010000AD010000A6
:10010000AF010000AF010000AF010000AF0100002F
:10011000AF010000AF010000AF010000AF0100001F
:10012000AF010000AF010000AF010000AF0100000F
:10013000AF010000AF010000AF010000AF010000FF
:10014000AF010000AF010000AF010000AF010000EF
:10015000AF010000AF010000AF010000AF010000DF
:10016000AF010000AF010000AF010000AF010000CF
:10017000AF010000AF010000AF010000AF010000BF
:100180000348854600F070F800480047D11300008E
:1001900070F2FF1F0648804706480047FEE7FEE76B
:1001A000FEE7FEE7FEE7FEE7FEE7FEE7FEE7FEE727
:1001B0004B0D00008101000030B50B4601460020C8
:1001C0002022012409E00D46D5409D4205D31D465D
:1001D0009540491B2546954040191546521E002D55
:1001E000F1DC30BDD2B201E00270401C491EFBD2EE
:1001F00070470022F6E710B513460A460446194632
:10020000FFF7F0FF204610BDF0B51FB406460020F2
:1002100082B005464024019100901BE001992246DE
:100220000F46304600F042F8049A059B801A994127
:1002300010D310461946224600F028F8361A8F418E
:100240000197224601200021009F00F01FF8381876
:100250004D4100902046641E0028DFDC019B009881
:100260002946324607B0F0BD064C0125064E05E092
:10027000E36807CC2B430C3C98471034B442F7D3C7
:10028000FFF782FFD4150000F415000010B5202AF6
:1002900004DB0146203A9140002010BD914020230C
:1002A0009C1A0346E3401943904010BD10B5202A24
:1002B00004DB0846203AD040002110BD0B46D34055
:1002C000D0402024A21A91400843194610BD0000D6
:1002D00030B502460B460020002100BF05E05C5C03
:1002E0004440034D285D4C1CE1B29142F7DB30BD28
:1002F000D314000000B503461846083000F082FA17
:10030000586800F015FA1748007804218843154909
:10031000087008460078C021884380301149087071
:1003200008464078102188430E49487000BF0D48A8
:1003300000790C21084080080228F8D100BF094844
:100340000079102108400028F9D106484078E021C2
:1003500088430449487008460079802108430149D0
:10036000087100BD0040064000B50346184608303D
:1003700000F048FA586800F0DBF9104800780421D2
:1003800088430E49087000BF0C48007910210840CE
:100390000028F9D100BF0948007940210840002811
:1003A000F9D006484078E02188430449487008465F
:1003B0000079802108430149087100BD00400640D2
:1003C00010B5002201218902034800F04DF80A20EF
:1003D00000F014F910BD000000F00F4010B50A2025
:1003E00000F00CF910BD10B50A2000F03BF910BD6B
:1003F00000BFFEE710B5152000F000F910BD7047F2
:10040000FFFFFFFFFFFFFFFFFFFFFFFFFFFFFEFEFE
:1004100000B503461846083000F0F4F9586800F0BB
:1004200087F910480078042188430E49087000BFFE
:100430000C480079102108400028F9D100BF094874
:100440000079402108400028F9D006484078E02192
:1004500088430449487008460079802108430149CF
:10046000087100BD0040064070B505460C461646B2
:100470005B4885420BD05A484030854207D05848E7
:100480008030854203D0742156A000F07FFF002EFB
:1004900001D0032E06D1686920436861A869204312
:1004A000A86109E0012E01D0022E05D16869A043A0
:1004B0006861A869A043A8614948404228180028FB
:1004C00004D0402810D080282AD11BE0022E05D16C
:1004D0004948806820434849886004E0464880686D
:1004E000A043454988601CE0022E05D14248C068FF
:1004F00020434149C86004E03F48C068A0433E49EA
:10050000C8600EE0022E05D13B48006920433A49FD
:10051000086104E038480069A0433749086100E0F9
:1005200000BF00BF2E4885422BD101200003204090
:10053000002805D030484069012108432E49486110
:10054000012040032040002805D02B4840690221AB
:10055000084329494861012000062040002805D0B1
:100560002548406904210843234948610120400689
:100570002040002805D020484069082108431E4932
:10058000486117484030854229D1E007C00F002854
:1005900005D01948406910210843174948610220D5
:1005A0002040002805D01448406920210843124902
:1005B0004861012000062040002805D00E4840690F
:1005C000402108430C494861012040062040002892
:1005D00005D009484069802108430749486170BD3A
:1005E00000F00F402E2E5C647269766572735C6752
:1005F00070696F2E630000000090044010B504463F
:10060000472C03DD104911A000F0C0FE202C04DAB5
:100610000120A0401249886014E0402C08DA2046EE
:100620002038C4B20120A0400D494031886009E063
:10063000482C07DA20464038C4B20120A0400849BF
:100640008031886010BD0000830200002E2E5C64A3
:100650007269766572735C6770696F2E6300000063
:1006600000F00F4010B50446472C03DD104911A0DF
:1006700000F08CFE202C04DA0120A04012494860D2
:1006800014E0402C08DA20462038C4B20120A040F3
:100690000D494031486009E0482C07DA20464038CF
:1006A000C4B20120A04008498031486010BD00005C
:1006B0005B0200002E2E5C647269766572735C6763
:1006C00070696F2E6300000000F00F4010B5044603
:1006D000207802280DD1207A102188431030207212
:1006E000207A20218843203020722046FFF73CFEEC
:1006F0001BE02078032807D1207A1021884320723C
:100700002046FFF785FE10E02078052807D1207AE3
:100710001021884320722046FFF7ECFD05E00348D6
:100720004078E02188430149487010BD00400640F0
:10073000214A811A904215D00ADC202832D07D212E
:100740004901411A16D07D225201891A31D108E09F
:100750001A4A8918002915D07D225201891A28D1F8
:1007600018E000BF16490978382291431831144A1D
:1007700011701FE012490978382291431031104A54
:10078000117017E00E4909783822914320310C4A44
:1007900011700FE00A490978382291432031084A44
:1007A000117007E00649097838229143044A117014
:1007B00000E000BF00BF70471027000090E8FFFF77
:1007C00000400640094A90701146C978490849001E
:1007D000C205D20F1143054AD17000BF0349097900
:1007E000402211400029F9D0704700000040064027
:1007F000C206D20E01219140014A116070470000EB
:1008000000E100E0002102789207D20F002A01D017
:10081000022211430278D207D20F002A01D004220B
:10082000114302781207D20F002A01D0202211436F
:100830000278D206D20F002A01D01022114302788A
:100840005207D20F002A01D080221143074A1170AB
:1008500002789206D20F002A06D000BF034A12780F
:10086000D207D20F002AF9D070470000005006408E
:1008700010B500220121C9020348FFF7F5FD0B2046
:10088000FFF7BCFE10BD000000F00F4003480068F9
:1008900080210843014908607047000000D00340F0
:1008A00010B5FFF7F3FF04480068002802D00249A2
:1008B0000868804710BD000004F0FF1F70B50E21CE
:1008C000002203231B03002404690588ED04ED0FB7
:1008D000002D03D002260D46B543294605882D0577
:1008E000ED0F002D03D004260D46B543294605889B
:1008F0006D05ED0F002D03D008260D46B5432946A2
:100900000578ED07ED0F002D02D00125ED042943F8
:1009100005786D07ED0F002D02D00125AD032943A9
:1009200005782D07ED0F002D02D001252D03294359
:100930000578AD07ED0F002D02D00125ED03294309
:100940000588AD05ED0F002D01D0202529434579FF
:100950006D076D0B294305792D0629430588ED05A3
:100960006D0F2D0529430578AD06AD0F0326360220
:10097000354029438268C368024D6960EA606B6153
:100980006C6270BD008004400EB5002000900190A4
:100990000290134801901348029002210098884366
:1009A000801C009008210098884308300090202186
:1009B00000988843203000904021009888434030C0
:1009C000009010210098884300906946064800F086
:1009D00061F80022012149050448FFF745FD0EBDDD
:1009E00040420F00002D31010060074000F00F4031
:1009F000F0B5ADB005460E461446B02101A8FFF78C
:100A0000F8FB00200090002700F03EF8681CC1B2FF
:100A1000684601717000401CC1B2684641716006B1
:100A2000400E401EC1B26846817101A90320FFF744
:100A30004FFC6946C871042301AA114800F062F90D
:100A4000FF22AD2101A8FFF7CDFB6006000E431C7D
:100A500001AA0C490A4800F055F9FFF7CBFC6106E2
:100A6000080E0849FFF734FC07466006000E0549EA
:100A7000085CB84202D001202DB0F0BD0020FBE799
:100A8000006007400CF0FF1F10B51520FFF7EAFDCE
:100A900010BD000070B504460D467548844206D06E
:100AA0007448844203D0562173A000F06FFC704854
:100AB000844207D17548406901218904084373497C
:100AC000486106E0714840690121C90408436F4943
:100AD00048612878C007C00F00280FD000BF2078D9
:100AE00080210843207000BF6148844203D10A205E
:100AF000FFF77EFE02E00B20FFF77AFE2878400722
:100B0000C00F00280FD000BF20782021084320709C
:100B100000BF5748844203D10A20FFF769FE02E074
:100B20000B20FFF765FE28780007C00F002806D0CD
:100B300000BF207810210843207000BF06E000BFEE
:100B4000207810218843207000BF00BF2878C0069D
:100B5000C00F00280ED020460121002904D00278C1
:100B600008231A43027003E0027808239A430270B4
:100B700000BF00BF28788006C00F00280ED0204696
:100B80000121002904D0027804231A43027003E0F3
:100B9000027804239A43027000BF00BF2878000641
:100BA000C00F002806D000BF207801210843207024
:100BB00000BF00BF2888C005C00F002806D000BFB6
:100BC000607880210843607000BF00BF28888005DE
:100BD000C00F002802D0204600F05AF828784006BE
:100BE000C00F002808D000BF2078022108432070E1
:100BF00000BF204600F04CF828880005C00F0028F0
:100C000006D000BF607801210843607000BF00BFBC
:100C100028884005C00F002806D000BF6078082152
:100C20000843607000BF00BF2888C004C00F0028C0
:100C300006D000BF607802210843607000BF00BF8B
:100C400028780007C00F002804D020466A68A968E9
:100C500000F023F828788007C00F002806D000BFD6
:100C6000207840210843207000BF00BF70BD000005
:100C700000600740007007402E2E5C647269766544
:100C800072735C7370692E63000000000080044082
:100C900041781022114341707047F7B582B0064683
:100CA0000F4638460499FFF787FA0190002000901C
:100CB000002515E000240AE0691C0198C840611C69
:100CC000884202D80120009003E0601CC4B2072CC7
:100CD000F2DD00BF0098002800D003E0681CC5B218
:100CE000082DE7DD00BF082C00DB0724082D00DD00
:100CF00008252001702108402907090F0843B0701A
:100D000005B0F0BDF0B504460D460026002B01D11C
:100D10003046F0BD002114E000BF00BFE07820277E
:100D200038400028F9D0505C607100BF00BF00BFA0
:100D3000E078802738400028F9D000BF60796854F7
:100D4000491C9942E8D33046E3E710B500F00AF8B1
:100D500010BD00BF027980231A40002AFAD0C17169
:100D60007047000030B50B4C20786178A288E3888A
:100D700080250446AC43204620242043064C054DE4
:100D80006C80064C6C802C466170A280E3802070E1
:100D900030BD000000200540C5200000D92800001B
:100DA00072B60348034948800348488062B67047DA
:100DB000A602000000200540B480000070B580212C
:100DC0000022438884880578AD07ED0F002D03D0FD
:100DD00080260D46B54329460578ED07ED0F002D19
:100DE00001D04025294305782D07ED0F002D01D0B6
:100DF000012529430578ED06ED0F002D01D00425CE
:100E0000294305786D07ED0F002D01D002252943F8
:100E100005786D06ED0F002D01D0202529430578BA
:100E2000AD06ED0F002D01D080252A430588AD05C4
:100E3000ED0F002D01D010252A430588ED05AD0FDB
:100E40002A43084D084E7580084D758035466A70F6
:100E50006B711D1235713546EC712512B571354631
:100E6000297070BDC520000000200540D928000071
:100E700010B5FFF795FF10BD1CB50446002000908B
:100E800001906846008804218843011D684601805E
:100E90000088082188434118684601800088102195
:100EA00088434118684601800088402188430146F4
:100EB0006846018000880221884301466846018017
:100EC0000088FF21813188430146803168460180D6
:100ED000448000218180FFF771FF1CBD0FB410B565
:100EE00003A9044B044A029800F016F810BC08BC91
:100EF00004B01847BF13000008F0FF1F02E008C845
:100F0000121F08C1002AFAD17047002001E001C178
:100F1000121F002AFBD17047FFB591B00F4605465E
:100F2000002606E025280AD0149A139990476D1CD4
:100F3000761C28780028F5D1304615B0F0BD002485
:100F400000940121F34A029400E004436D1C2B78C5
:100F50000846203B98401042F7D128782A280ED026
:100F6000022128780246303A092A15D8009A0A2325
:100F70005A43303A80180C436D1C0090F1E701CFC2
:100F80000090002805DA0120400304430098404205
:100F90000090022004436D1C28782E2815D10420CF
:100FA000044368786D1C2A280AD101CF6D1C029079
:100FB0000BE002990A225143303940186D1C02900F
:100FC0002878014630390929F3D928786C2810D0BF
:100FD00006DC4C281AD068280ED06A2817D104E005
:100FE000742813D07A2812D110E001204005044360
:100FF0000CE00121090501E0032109050C43697892
:10100000814203D10120000524186D1C6D1C287835
:1010100003906E281ED00CDC632831D004DC00283D
:101020008AD0582811D1B2E064287BD069280CD12D
:1010300078E073282DD004DC6F2870D0702804D19C
:10104000A7E075286CD078286BD0149A1399904734
:10105000761C62E06002400F022807D003280AD005
:10106000042838680AD006603F1D56E03868F1173A
:1010700006604160F8E738680680F5E70670F3E738
:101080003878694608740020487404A80390012049
:1010900003E0386803900020C0433F1D61070FD56F
:1010A000002101E00199491C029A0191914213DA51
:1010B0008142F7DB019A0399895C0029F2D10BE0A8
:1010C000002101E00199491C01918142FADB019A5A
:1010D0000399895C0029F5D101990098139A401A67
:1010E00000902146149B00F03BF9019980194618A5
:1010F00007E0039803990078491C0391149A139907
:1011000090470198401E0190401CF2D12146149B4B
:10111000139A009800F014F986196D1C09E741E054
:1011200033E034E00A200021049005916002410F71
:10113000022905D001CFC2179446032905D007E044
:10114000FF1DFF08FF0003CF06E000B2C217944660
:10115000042902D140B2C1178C4600226146944551
:1011600006DA0A460021404291418C462D2102E0D8
:10117000210504D52B216A461176012103E0E10700
:1011800001D02021F7E7019154E00A200BE0102064
:1011900009E0102004900021042004430820059158
:1011A000029003E008200021059104906002410FA5
:1011B000022905D001CF00229446032906D006E07B
:1011C000FF1DFF08FF0003CF8C4603E080B2042917
:1011D00000D1C0B20021019121072BD503997029BC
:1011E00006D0049A1021059B4A401A4305D00EE010
:1011F00040216A461176012108E06146014306D08C
:1012000030216A4611760399517602210191049AA0
:101210000821059B4A401A430CD16146014301D184
:10122000610707D530216A461176012101910299A3
:10123000491E02910399582904D037A103910FA99F
:101240000F910DE039A1F9E76146059B049AFEF77D
:10125000DBFF039B8C469B5C0F9A521E0F92137010
:1012600061460143F0D10F9807A9081A2030039076
:10127000600704D5012000048443029801E00120A6
:1012800002900399884201DD401A00E000204118D5
:101290000290019809180098401A0090E00306D4C3
:1012A0002146149B139A009800F05AF886190020E2
:1012B000049008E006A9085C149A139990470498D2
:1012C000401C761C049001998842F3DBE0030CD5A6
:1012D0002146149B139A009800F042F8861904E006
:1012E000149A302013999047761C0299481E029058
:1012F0000029F5DC08E00F980F990078491C0F9140
:10130000149A13999047761C0399481E039000295C
:10131000F1DCFBE609280100303132333435363751
:101320003839616263646566000000003031323331
:1013300034353637383941424344454600000000D1
:10134000F8B5044600251E461746880404D405E077
:1013500039462020B0476D1C641EF9D52846F8BDDB
:10136000FFB50446002581B01E46C80301D53027CD
:1013700000E02027880404D505E038460399B047EB
:101380006D1C641EF9D5284605B0F0BD05460E4615
:10139000324629460748FFF7A1FD09E0064C00E068
:1013A000641E002CFCD1044C00E0641E002CFCD117
:1013B000F4E70000B0140000A0860100704770B58B
:1013C00004460D46E0B200F02DF8012070BD00008B
:1013D00000BF00F031F87D20C000FFF74DFDFFF7A2
:1013E00047FAFEF7EDFF00BF0D48C06840210843F3
:1013F0000B49C86000BFFFF7C7FA0FE0FFF738FDE1
:10140000FEF7F1FF0A220121E020FFF7F1FA0028A0
:1014100002D1FEF7E3FF01E0FEF7E5FFEEE7000093
:101420000080044010B5044621460248FFF791FCB5
:1014300010BD000000B0064000B589B0142104A81A
:10144000FEF7D7FE00200190029003901549088016
:10145000154908805820FFF7B5F914490798084343
:1014600007900121090608980843089004A8FFF78F
:1014700025FA6846007B41084900491C684601730B
:10148000007B04218843011D684601737D20800193
:10149000029002216846017101A8FFF717F909B00F
:1014A00000BD000000F0FF1F02F0FF1F00307000C1
:1014B000417373657274696F6E206661696C6564EF
:1014C00020696E202573206174206C696E6520256B
:1014D000640A0000D57FAAFE2B815429FC5683D7CD
:1014E00002A87D52872DF8AC79D3067BAE04D18556
:1014F00050FA2FA471DB0E5A8F25F08D58F2277306
:10150000A60CD9F623895C08DD77A2DF0AA0752135
:10151000F45E8B9D48E23763B61CC9B461CB1E4AAA
:101520009F35E0CF1AB06531E44E9BE633994C18F5
:10153000CD67B239EC4693C712B86D10C56FBAEEDD
:101540003B91446BBE14C19540EA3F42973DE8BCD5
:1015500069C316EF3A904511C46EBBC613B96C3817
:10156000ED4792BD68C21743963CE99441EB3E6A51
:10157000BF15C04B9E34E1B560CA1F62B71DC89C41
:1015800049E33619CC66B3E732984D30E54F9ACE31
:101590001BB16472A70DD88C59F3265B8E24F1A57C
:1015A00070DA0F20F55F8ADE0BA17409DC76A3F7F1
:1015B00022885DD603A97C28FD5782FF2A80550129
:1015C000D47EAB8451FB2E7AAF05D0AD78D20753D1
:1015D000862CF900F415000000F0FF1F0C0000003D
:1015E000FC0E0000001600000CF0FF1F640200005B
:1015F0000A0F0000000000000000000000000000D2
:040000050000019561
:00000001FF
